{
  "contractName": "SimpleBank",
  "abi": [
    {
      "constant": true,
      "inputs": [],
      "name": "owner",
      "outputs": [
        {
          "name": "",
          "type": "address"
        }
      ],
      "payable": false,
      "stateMutability": "view",
      "type": "function"
    },
    {
      "inputs": [],
      "payable": false,
      "stateMutability": "nonpayable",
      "type": "constructor"
    },
    {
      "payable": false,
      "stateMutability": "nonpayable",
      "type": "fallback"
    },
    {
      "anonymous": false,
      "inputs": [
        {
          "indexed": false,
          "name": "accountAddress",
          "type": "address"
        },
        {
          "indexed": false,
          "name": "amount",
          "type": "uint256"
        }
      ],
      "name": "LogDepositMade",
      "type": "event"
    },
    {
      "constant": false,
      "inputs": [],
      "name": "enroll",
      "outputs": [
        {
          "name": "",
          "type": "uint256"
        }
      ],
      "payable": false,
      "stateMutability": "nonpayable",
      "type": "function"
    },
    {
      "constant": false,
      "inputs": [],
      "name": "deposit",
      "outputs": [
        {
          "name": "",
          "type": "uint256"
        }
      ],
      "payable": true,
      "stateMutability": "payable",
      "type": "function"
    },
    {
      "constant": false,
      "inputs": [
        {
          "name": "withdrawAmount",
          "type": "uint256"
        }
      ],
      "name": "withdraw",
      "outputs": [
        {
          "name": "remainingBal",
          "type": "uint256"
        }
      ],
      "payable": false,
      "stateMutability": "nonpayable",
      "type": "function"
    },
    {
      "constant": true,
      "inputs": [],
      "name": "balance",
      "outputs": [
        {
          "name": "",
          "type": "uint256"
        }
      ],
      "payable": false,
      "stateMutability": "view",
      "type": "function"
    }
  ],
  "bytecode": "0x608060405234801561001057600080fd5b5033600160006101000a81548173ffffffffffffffffffffffffffffffffffffffff021916908373ffffffffffffffffffffffffffffffffffffffff1602179055506104d3806100616000396000f30060806040526004361061006d576000357c0100000000000000000000000000000000000000000000000000000000900463ffffffff1680632e1a7d4d1461007f5780638da5cb5b146100c0578063b69ef8a814610117578063d0e30db014610142578063e65f2a7e14610160575b34801561007957600080fd5b50600080fd5b34801561008b57600080fd5b506100aa6004803603810190808035906020019092919050505061018b565b6040518082815260200191505060405180910390f35b3480156100cc57600080fd5b506100d56102b3565b604051808273ffffffffffffffffffffffffffffffffffffffff1673ffffffffffffffffffffffffffffffffffffffff16815260200191505060405180910390f35b34801561012357600080fd5b5061012c6102d9565b6040518082815260200191505060405180910390f35b61014a61031f565b6040518082815260200191505060405180910390f35b34801561016c57600080fd5b5061017561041c565b6040518082815260200191505060405180910390f35b6000816000803373ffffffffffffffffffffffffffffffffffffffff1673ffffffffffffffffffffffffffffffffffffffff16815260200190815260200160002054101515156101da57600080fd5b3373ffffffffffffffffffffffffffffffffffffffff166108fc839081150290604051600060405180830381858888f19350505050158015610220573d6000803e3d6000fd5b50816000803373ffffffffffffffffffffffffffffffffffffffff1673ffffffffffffffffffffffffffffffffffffffff168152602001908152602001600020600082825403925050819055506000803373ffffffffffffffffffffffffffffffffffffffff1673ffffffffffffffffffffffffffffffffffffffff168152602001908152602001600020549050919050565b600160009054906101000a900473ffffffffffffffffffffffffffffffffffffffff1681565b60008060003373ffffffffffffffffffffffffffffffffffffffff1673ffffffffffffffffffffffffffffffffffffffff16815260200190815260200160002054905090565b6000346000803373ffffffffffffffffffffffffffffffffffffffff1673ffffffffffffffffffffffffffffffffffffffff168152602001908152602001600020600082825401925050819055507fa8126f7572bb1fdeae5b5aa9ec126438b91f658a07873f009d041ae690f3a1933334604051808373ffffffffffffffffffffffffffffffffffffffff1673ffffffffffffffffffffffffffffffffffffffff1681526020018281526020019250505060405180910390a16000803373ffffffffffffffffffffffffffffffffffffffff1673ffffffffffffffffffffffffffffffffffffffff16815260200190815260200160002054905090565b60006103e86000803373ffffffffffffffffffffffffffffffffffffffff1673ffffffffffffffffffffffffffffffffffffffff168152602001908152602001600020819055506000803373ffffffffffffffffffffffffffffffffffffffff1673ffffffffffffffffffffffffffffffffffffffff168152602001908152602001600020549050905600a165627a7a7230582078f2aba61e2a8c13c6f6e30b90f38f608761f225fdc4a648488ee27ee4a781020029",
  "source": "pragma solidity ^0.4.13;\ncontract SimpleBank {\n\n    /* Fill in the keyword. Hint: We want to protect our users balance from other contracts*/\n    mapping (address => uint) private balances;\n\n    /* Let's make sure everyone knows who owns the bank. Use the appropriate keyword for this*/\n    address public owner;\n\n    // Events - publicize actions to external listeners\n    /* Add 2 arguments for this event, an accountAddress and an amount */\n    event LogDepositMade(address accountAddress, uint amount);\n\n    // Constructor, can receive one or many variables here; only one allowed\n    constructor() public {\n        /* Set the owner to the creator of this contract */\n        owner = msg.sender;\n    }\n\n    /// @notice Enroll a customer with the bank, giving them 1000 tokens for free\n    /// @return The balance of the user after enrolling\n    function enroll() public returns (uint){\n      /* Set the sender's balance to 1000, return the sender's balance */\n      balances[msg.sender] = 1000;\n\n      return balances[msg.sender];\n    }\n\n    /// @notice Deposit ether into bank\n    /// @return The balance of the user after the deposit is made\n    // Add the appropriate keyword so that this function can receive ether\n    function deposit() public payable returns (uint) {\n        /* Add the amount to the user's balance, call the event associated with a deposit,\n          then return the balance of the user */\n        balances[msg.sender] += msg.value;\n\n        emit LogDepositMade(msg.sender, msg.value);\n        return balances[msg.sender];\n    }\n\n    /// @notice Withdraw ether from bank\n    /// @dev This does not return any excess ether sent to it\n    /// @param withdrawAmount amount you want to withdraw\n    /// @return The balance remaining for the user\n    function withdraw(uint withdrawAmount) public returns (uint remainingBal) {\n        /* If the sender's balance is at least the amount they want to withdraw,\n           Subtract the amount from the sender's balance, and try to send that amount of ether\n           to the user attempting to withdraw. IF the send fails, add the amount back to the user's balance\n           return the user's balance.*/\n        require(balances[msg.sender] >= withdrawAmount);\n        msg.sender.transfer(withdrawAmount);\n        balances[msg.sender] -= withdrawAmount;\n\n        return balances[msg.sender];\n    }\n\n    /// @notice Get balance\n    /// @return The balance of the user\n    // A SPECIAL KEYWORD prevents function from editing state variables;\n    // allows function to run locally/off blockchain\n    function balance() public constant returns (uint) {\n        /* Get the balance of the sender of this transaction */\n        return balances[msg.sender];\n    }\n\n    // Fallback function - Called if other functions don't match call or\n    // sent ether without data\n    // Typically, called when invalid data is sent\n    // Added so ether sent to this contract is reverted if the contract fails\n    // otherwise, the sender's money is transferred to contract\n    function() public {\n        revert();\n    }\n}\n",
  "sourcePath": "C:\\Users\\Ryan\\Downloads\\simple_bank\\contracts\\SimpleBank.sol",
  "compiler": {
    "name": "solc",
    "version": "0.4.24+commit.e67f0147.Emscripten.clang"
  },
  "schemaVersion": "2.0.0",
  "updatedAt": "2018-06-26T18:31:19.323Z"
}